:060000000A128A11FC2F18
:100AC000F000700883120313880008000A128A11CC
:100AD00082250A128A1183160313111408000A12C0
:100AE0008A1182250A128A11831603131115080030
:100AF0000A128A1182250A128A11700883120313BE
:100B000093000800831603131419872D882D822D56
:100B100011081F39031D8D2D8E2D822D0800F10027
:100B20008312031307147108880087141A30F00029
:100B3000F00B982D00008312031387100800F200B9
:100B40008312031307107208880087140B30F1001A
:100B50006230F000F00BAA2DF10BAA2D00008312D9
:100B60000313871008008316031788018901831671
:100B7000031386018701880183120313860187010D
:100B800088010A128A11C8260A128A1100308312BB
:100B90000313A3000130A2008630A100A030A00002
:100BA0000A128A1157260A128A110800F5007503E5
:100BB000031DDB2DDC2DE82D73087F3EF400740847
:100BC000F60076080A128A119F250A128A11F92D59
:100BD00002307506031DED2DEE2DF92D7308BF3E75
:100BE000F4007408F60076080A128A119F250A128A
:100BF0008A1108000A128A1182250A128A118316A4
:100C0000031391150A128A1182250A128A1183127E
:100C100003131308F200F3017208F4007308F500DF
:100C20000A128A1182250A128A1170037104031DA7
:100C30001A2E1B2E1F2E831603139112222E83169B
:100C40000313911611167508F1007408F0000800DE
:100C5000F601F701442E76087207F40077080318AE
:100C6000770A7307F500740884008317751C8313D3
:100C700000080A128A118F250A128A110130F6071C
:100C80000318F70A0030F70776087207F4007708B0
:100C90000318770A7307F500740884008317751C1E
:100CA00083130008031D552E562E2B2E08002830C6
:100CB0008312031394008316031391018312031309
:100CC0002008A4002108A5002208A6002308A700E8
:100CD00002300310A40DA50DA60DA70DFF3E031DA8
:100CE000692E2708F3002608F2002508F1002408E1
:100CF000F0000030F7007A30F6001230F5000030D6
:100D0000F4000A128A111B270A128A117008FF3E8A
:100D10008316031393009401871507160800F20049
:100D2000B02E831603130F088F3940388F00C62E5C
:100D3000831603130F088F3950388F00C62E831681
:100D400003130F088F3960388F00C62E703083165A
:100D500003138F04C62E7030831603138F04C62E20
:100D60007208F000F1017108003A0319B82EAB2E99
:100D70007008013A0319912E033A0319982E063A86
:100D800003199F2E0C3A0319A62EAB2E0F14080040
:100D900000300A128A1160250A128A113430F400D8
:100DA000F130F300F30BD22EF40BD22ED72E3030CD
:100DB0000A128A119F250A128A110D30F400FB30A5
:100DC000F300F30BE12EF40BE12EE62E30300A1285
:100DD0008A119F250A128A114230F300F30BEE2E7E
:100DE000000030300A128A119F250A128A114230FF
:100DF000F300F30BF92E000038300A128A119F25F8
:100E00000A128A1108300A128A119F250A128A11C1
:100E100001300A128A119F250A128A1106300A121D
:100E20008A119F250A128A110C300A128A119F25F5
:100E30000A128A1108000030FC000030FB0000306C
:100E4000FA000030F9007308720471047004031989
:100E50002A2F2B2F782FFD01FD0A3B2F0130F800A0
:100E60000310F00DF10DF20DF30DF80B302F0130E2
:100E7000F8007808FD07F31F3E2F3F2F2E2F01307B
:100E8000F8000310F90DFA0DFB0DFC0DF80B412FC6
:100E900073087702031D562F72087602031D562F22
:100EA00071087502031D562F70087402031C592F18
:100EB0005A2F692F7008F4027108031C710FF50294
:100EC0007208031C720FF6027308031C730FF702FB
:100ED000791401300310F30CF20CF10CF00CFF3E0E
:100EE000031D6A2F0130FD02031D772F782F3F2F3E
:100EF0007C08F3007B08F2007A08F1007908F00022
:100F0000080008300A128A118F260A128A110A1262
:100F10008A11B3250A128A110A128A1166250A1249
:100F20008A115030F0000030F1000A128A11782541
:100F30000A128A110030F000F1000A128A11782595
:100F40000A128A110A128A116F250A128A110330B5
:100F500083120313AA000830A9007630A800A80B5A
:100F6000AF2FA90BAF2FAA0BAF2F00000A128A11C7
:100F700066250A128A115130F0000030F1000A1281
:100F80008A1178250A128A11F301F30A01300A1234
:100F90008A11D6250A128A110030F000F1000A12D7
:100FA0008A11FA250A128A11700883120313860027
:100FB0000608A800A9012808F2002908F3000A126F
:100FC0008A1128260A128A110A128A116F250A121A
:100FD0008A11033083120313AA000830A900763067
:100FE000A800A80BF12FA90BF12FAA0BF12F0000DD
:100FF0008C2F0A128A11002883010A128A11812F6C
:08400000FF3FFF3FFF3FFF3FC0
:04400E00D420FF3F7C
:00000001FF
