:060000000A128A110C280F
:10000800FE00030EF2000A08F3000A128A111628ED
:100018000A128A110F28F701F801F90183010A125F
:100028008A116329831203130C1F1B281C282D28EF
:100038001F0CF000700C0F39003A031D24282528E6
:100048002B28831603131E08F0007008F90083128A
:100058000C138C1D3028312890281412141B3528B5
:1000680036283A28941F39283A2844281308F000DB
:10007800F1017008F7007108F800141394131416AE
:1000880083160313941A49284A28692814194D28F5
:100098004E286928831203131308F000F101700831
:1000A800F7007108F8008C11141683160313141C3A
:1000B8005E285F2859288312031313088600A63088
:1000C800F000F00B652800008D28941A6C286D2824
:1000D8008D28141D702871288D2883120313130886
:1000E800F000F1017008F7007108F8008316031397
:1000F800141079088312031393001416A630F00025
:10010800F00B842800008316031314188C288D28FC
:100118008728831203138C1173088A00720E8300D8
:10012800FE0E7E0E0900F600AE283F309F05D2284D
:100138001F083F3940389F00D2281F083F398038B0
:100148009F00D228C0309F04D2281F083F3940386A
:100158009F00D228760883120313A000A10121086A
:10016800003A0319B828A9282008003A0319992841
:10017800013A03199C28033A0319A128013A0319E3
:10018800A628A928831603131F12EE288316031323
:100198001F16EE28831603131F12EE287408A000FA
:1001A800A1012108003A0319DA28CE282008003ACC
:1001B8000319C628013A0319CA28CE28831603133F
:1001C8009F120029831603139F1600298316031311
:1001D8009F120029750883120313A000A1012108AA
:1001E800003A0319F828EA282008003A0319E228F7
:1001F800013A0319E628EA289F17831203131F14EC
:10020800831603130C17831203130C130800F6004C
:100218002C29831603130F088F3940388F00422981
:10022800831603130F088F3950388F00422983161D
:1002380003130F088F3960388F00422970308316F6
:1002480003138F0442297030831603138F04422945
:100258007608F400F5017508003A031934292729AE
:100268007408013A03190D29033A03191429063AA7
:1002780003191B290C3A0319222927290F140800EE
:100288000130831603178800890101308316031390
:1002980085008312031385018316031388018312D3
:1002A800031388018316031386018312031386013F
:1002B80050300A128A1180210A128A110800083067
:1002C8000A128A110B210A128A11F401F501003071
:1002D8000A128A1197200A128A110A128A114421D5
:1002E8000A128A1100300A128A119A210A128A11F6
:1002F80076290A128A110C28F4007408831603134D
:10030800930036308312031394008030831603134E
:1003180094000130910087150716831203138C117E
:10032800831603138C150B178B170800F50083121F
:1003380003139F18A029A129B1297508F400F40D09
:10034800F40D1F087406C33974069F000330F400C7
:0C035800F40BAC29831203139F1408005F
:08400000FF3FFF3FFF3FFF3FC0
:04400E00D420FF3F7C
:00000001FF
